{"abi":[{"type":"constructor","inputs":[{"name":"_vegatoken","type":"address","internalType":"address"}],"stateMutability":"nonpayable"},{"type":"function","name":"castVote","inputs":[{"name":"voteId","type":"uint256","internalType":"uint256"},{"name":"vote","type":"bool","internalType":"bool"}],"outputs":[],"stateMutability":"nonpayable"},{"type":"function","name":"createVote","inputs":[{"name":"dscr","type":"string","internalType":"string"},{"name":"ddl","type":"uint256","internalType":"uint256"},{"name":"tr","type":"uint256","internalType":"uint256"}],"outputs":[],"stateMutability":"nonpayable"},{"type":"function","name":"max_per","inputs":[],"outputs":[{"name":"","type":"uint256","internalType":"uint256"}],"stateMutability":"view"},{"type":"function","name":"owner","inputs":[],"outputs":[{"name":"","type":"address","internalType":"address"}],"stateMutability":"view"},{"type":"function","name":"periods","inputs":[{"name":"","type":"address","internalType":"address"}],"outputs":[{"name":"","type":"uint256","internalType":"uint256"}],"stateMutability":"view"},{"type":"function","name":"renounceOwnership","inputs":[],"outputs":[],"stateMutability":"nonpayable"},{"type":"function","name":"stacked","inputs":[{"name":"","type":"address","internalType":"address"}],"outputs":[{"name":"","type":"uint256","internalType":"uint256"}],"stateMutability":"view"},{"type":"function","name":"stakeTokens","inputs":[{"name":"amount","type":"uint256","internalType":"uint256"},{"name":"period","type":"uint256","internalType":"uint256"}],"outputs":[],"stateMutability":"nonpayable"},{"type":"function","name":"transferOwnership","inputs":[{"name":"newOwner","type":"address","internalType":"address"}],"outputs":[],"stateMutability":"nonpayable"},{"type":"function","name":"vegatoken","inputs":[],"outputs":[{"name":"","type":"address","internalType":"contract IERC20"}],"stateMutability":"view"},{"type":"function","name":"vote_cnt","inputs":[],"outputs":[{"name":"","type":"uint256","internalType":"uint256"}],"stateMutability":"view"},{"type":"function","name":"voted","inputs":[{"name":"","type":"address","internalType":"address"},{"name":"","type":"uint256","internalType":"uint256"}],"outputs":[{"name":"","type":"bool","internalType":"bool"}],"stateMutability":"view"},{"type":"function","name":"votes","inputs":[{"name":"","type":"uint256","internalType":"uint256"}],"outputs":[{"name":"id","type":"uint256","internalType":"uint256"},{"name":"dscr","type":"string","internalType":"string"},{"name":"ddl","type":"uint256","internalType":"uint256"},{"name":"tr","type":"uint256","internalType":"uint256"},{"name":"t_pos","type":"uint256","internalType":"uint256"},{"name":"t_neg","type":"uint256","internalType":"uint256"},{"name":"active","type":"bool","internalType":"bool"}],"stateMutability":"view"},{"type":"event","name":"OwnershipTransferred","inputs":[{"name":"previousOwner","type":"address","indexed":true,"internalType":"address"},{"name":"newOwner","type":"address","indexed":true,"internalType":"address"}],"anonymous":false},{"type":"event","name":"VoteCasted","inputs":[{"name":"id","type":"uint256","indexed":false,"internalType":"uint256"},{"name":"voter","type":"address","indexed":false,"internalType":"address"},{"name":"vote","type":"bool","indexed":false,"internalType":"bool"}],"anonymous":false},{"type":"event","name":"VoteCreated","inputs":[{"name":"id","type":"uint256","indexed":false,"internalType":"uint256"},{"name":"dscr","type":"string","indexed":false,"internalType":"string"},{"name":"ddl","type":"uint256","indexed":false,"internalType":"uint256"},{"name":"tr","type":"uint256","indexed":false,"internalType":"uint256"}],"anonymous":false},{"type":"event","name":"VoteEnded","inputs":[{"name":"id","type":"uint256","indexed":false,"internalType":"uint256"},{"name":"t_pos","type":"uint256","indexed":false,"internalType":"uint256"},{"name":"t_neg","type":"uint256","indexed":false,"internalType":"uint256"}],"anonymous":false},{"type":"error","name":"OwnableInvalidOwner","inputs":[{"name":"owner","type":"address","internalType":"address"}]},{"type":"error","name":"OwnableUnauthorizedAccount","inputs":[{"name":"account","type":"address","internalType":"address"}]}],"bytecode":{"object":"0x608060405234801561000f575f5ffd5b50604051611c78380380611c7883398181016040528101906100319190610217565b335f73ffffffffffffffffffffffffffffffffffffffff168173ffffffffffffffffffffffffffffffffffffffff16036100a2575f6040517f1e4fbdf70000000000000000000000000000000000000000000000000000000081526004016100999190610251565b60405180910390fd5b6100b1816100f860201b60201c565b508060015f6101000a81548173ffffffffffffffffffffffffffffffffffffffff021916908373ffffffffffffffffffffffffffffffffffffffff1602179055505061026a565b5f5f5f9054906101000a900473ffffffffffffffffffffffffffffffffffffffff169050815f5f6101000a81548173ffffffffffffffffffffffffffffffffffffffff021916908373ffffffffffffffffffffffffffffffffffffffff1602179055508173ffffffffffffffffffffffffffffffffffffffff168173ffffffffffffffffffffffffffffffffffffffff167f8be0079c531659141344cd1fd0a4f28419497f9722a3daafe3b4186f6b6457e060405160405180910390a35050565b5f5ffd5b5f73ffffffffffffffffffffffffffffffffffffffff82169050919050565b5f6101e6826101bd565b9050919050565b6101f6816101dc565b8114610200575f5ffd5b50565b5f81519050610211816101ed565b92915050565b5f6020828403121561022c5761022b6101b9565b5b5f61023984828501610203565b91505092915050565b61024b816101dc565b82525050565b5f6020820190506102645f830184610242565b92915050565b611a01806102775f395ff3fe608060405234801561000f575f5ffd5b50600436106100cd575f3560e01c80635df813301161008a57806378f7520c1161006457806378f7520c146102015780638da5cb5b1461021f578063c591aa981461023d578063f2fde38b1461026d576100cd565b80635df8133014610191578063715018a6146101c757806372ebdd47146101d1576100cd565b8063029fc3e8146100d157806307f56e00146100ed57806315373e3d1461010b5780632211f79a146101275780632349c1e8146101455780633b7b618814610175575b5f5ffd5b6100eb60048036038101906100e69190610da0565b610289565b005b6100f56103db565b6040516101029190610e1b565b60405180910390f35b61012560048036038101906101209190610e69565b6103e1565b005b61012f6106cd565b60405161013c9190610f21565b60405180910390f35b61015f600480360381019061015a9190610f75565b6106f2565b60405161016c9190610e1b565b60405180910390f35b61018f600480360381019061018a9190610fa0565b610707565b005b6101ab60048036038101906101a69190610fde565b610886565b6040516101be9796959493929190611078565b60405180910390f35b6101cf610956565b005b6101eb60048036038101906101e69190610f75565b610969565b6040516101f89190610e1b565b60405180910390f35b61020961097e565b6040516102169190610e1b565b60405180910390f35b610227610986565b60405161023491906110fb565b60405180910390f35b61025760048036038101906102529190611114565b6109ad565b6040516102649190611152565b60405180910390f35b61028760048036038101906102829190610f75565b6109d7565b005b610291610a5b565b4282116102d3576040517f08c379a00000000000000000000000000000000000000000000000000000000081526004016102ca906111b5565b60405180910390fd5b6040518060e0016040528060025481526020018481526020018381526020018281526020015f81526020015f81526020016001151581525060035f60025f815461031c90611200565b91905081905581526020019081526020015f205f820151815f0155602082015181600101908161034c919061143b565b5060408201518160020155606082015181600301556080820151816004015560a0820151816005015560c0820151816006015f6101000a81548160ff0219169083151502179055509050507f6912e5abe531ca5f3b6f973f97278ab6731cdec0178a7b3c2c7a5822a3f1732b6002548484846040516103ce949392919061150a565b60405180910390a1505050565b60025481565b5f60035f8481526020019081526020015f209050806006015f9054906101000a900460ff16610445576040517f08c379a000000000000000000000000000000000000000000000000000000000815260040161043c9061159e565b60405180910390fd5b806002015442111561048c576040517f08c379a000000000000000000000000000000000000000000000000000000000815260040161048390611606565b60405180910390fd5b60065f3373ffffffffffffffffffffffffffffffffffffffff1673ffffffffffffffffffffffffffffffffffffffff1681526020019081526020015f205f8481526020019081526020015f205f9054906101000a900460ff1615610525576040517f08c379a000000000000000000000000000000000000000000000000000000000815260040161051c9061166e565b60405180910390fd5b5f600260055f3373ffffffffffffffffffffffffffffffffffffffff1673ffffffffffffffffffffffffffffffffffffffff1681526020019081526020015f205461057091906117c7565b60045f3373ffffffffffffffffffffffffffffffffffffffff1673ffffffffffffffffffffffffffffffffffffffff1681526020019081526020015f20546105b89190611811565b905082156105df5780826004015f8282546105d39190611852565b925050819055506105fa565b80826005015f8282546105f29190611852565b925050819055505b600160065f3373ffffffffffffffffffffffffffffffffffffffff1673ffffffffffffffffffffffffffffffffffffffff1681526020019081526020015f205f8681526020019081526020015f205f6101000a81548160ff0219169083151502179055507f5aaa9aad7433112662b9e5ae23b96ed62b00035f413ab908c55607284e0804e284338560405161069193929190611885565b60405180910390a1816003015482600401541015806106b857508160030154826005015410155b156106c7576106c684610ae2565b5b50505050565b60015f9054906101000a900473ffffffffffffffffffffffffffffffffffffffff1681565b6004602052805f5260405f205f915090505481565b630784ce0081111561074e576040517f08c379a000000000000000000000000000000000000000000000000000000000815260040161074590611904565b60405180910390fd5b60015f9054906101000a900473ffffffffffffffffffffffffffffffffffffffff1673ffffffffffffffffffffffffffffffffffffffff166323b872dd3330856040518463ffffffff1660e01b81526004016107ac93929190611922565b6020604051808303815f875af11580156107c8573d5f5f3e3d5ffd5b505050506040513d601f19601f820116820180604052508101906107ec919061196b565b508160045f3373ffffffffffffffffffffffffffffffffffffffff1673ffffffffffffffffffffffffffffffffffffffff1681526020019081526020015f205f8282546108399190611852565b925050819055508060055f3373ffffffffffffffffffffffffffffffffffffffff1673ffffffffffffffffffffffffffffffffffffffff1681526020019081526020015f20819055505050565b6003602052805f5260405f205f91509050805f0154908060010180546108ab90611274565b80601f01602080910402602001604051908101604052809291908181526020018280546108d790611274565b80156109225780601f106108f957610100808354040283529160200191610922565b820191905f5260205f20905b81548152906001019060200180831161090557829003601f168201915b505050505090806002015490806003015490806004015490806005015490806006015f9054906101000a900460ff16905087565b61095e610a5b565b6109675f610b58565b565b6005602052805f5260405f205f915090505481565b630784ce0081565b5f5f5f9054906101000a900473ffffffffffffffffffffffffffffffffffffffff16905090565b6006602052815f5260405f20602052805f5260405f205f915091509054906101000a900460ff1681565b6109df610a5b565b5f73ffffffffffffffffffffffffffffffffffffffff168173ffffffffffffffffffffffffffffffffffffffff1603610a4f575f6040517f1e4fbdf7000000000000000000000000000000000000000000000000000000008152600401610a4691906110fb565b60405180910390fd5b610a5881610b58565b50565b610a63610c19565b73ffffffffffffffffffffffffffffffffffffffff16610a81610986565b73ffffffffffffffffffffffffffffffffffffffff1614610ae057610aa4610c19565b6040517f118cdaa7000000000000000000000000000000000000000000000000000000008152600401610ad791906110fb565b60405180910390fd5b565b5f60035f8381526020019081526020015f2090505f816006015f6101000a81548160ff0219169083151502179055507fab22b58c523ff58caaf5fd512dba4f50e2848c261aa036ca470a7eab7b0f8cd78282600401548360050154604051610b4c93929190611996565b60405180910390a15050565b5f5f5f9054906101000a900473ffffffffffffffffffffffffffffffffffffffff169050815f5f6101000a81548173ffffffffffffffffffffffffffffffffffffffff021916908373ffffffffffffffffffffffffffffffffffffffff1602179055508173ffffffffffffffffffffffffffffffffffffffff168173ffffffffffffffffffffffffffffffffffffffff167f8be0079c531659141344cd1fd0a4f28419497f9722a3daafe3b4186f6b6457e060405160405180910390a35050565b5f33905090565b5f604051905090565b5f5ffd5b5f5ffd5b5f5ffd5b5f5ffd5b5f601f19601f8301169050919050565b7f4e487b71000000000000000000000000000000000000000000000000000000005f52604160045260245ffd5b610c7f82610c39565b810181811067ffffffffffffffff82111715610c9e57610c9d610c49565b5b80604052505050565b5f610cb0610c20565b9050610cbc8282610c76565b919050565b5f67ffffffffffffffff821115610cdb57610cda610c49565b5b610ce482610c39565b9050602081019050919050565b828183375f83830152505050565b5f610d11610d0c84610cc1565b610ca7565b905082815260208101848484011115610d2d57610d2c610c35565b5b610d38848285610cf1565b509392505050565b5f82601f830112610d5457610d53610c31565b5b8135610d64848260208601610cff565b91505092915050565b5f819050919050565b610d7f81610d6d565b8114610d89575f5ffd5b50565b5f81359050610d9a81610d76565b92915050565b5f5f5f60608486031215610db757610db6610c29565b5b5f84013567ffffffffffffffff811115610dd457610dd3610c2d565b5b610de086828701610d40565b9350506020610df186828701610d8c565b9250506040610e0286828701610d8c565b9150509250925092565b610e1581610d6d565b82525050565b5f602082019050610e2e5f830184610e0c565b92915050565b5f8115159050919050565b610e4881610e34565b8114610e52575f5ffd5b50565b5f81359050610e6381610e3f565b92915050565b5f5f60408385031215610e7f57610e7e610c29565b5b5f610e8c85828601610d8c565b9250506020610e9d85828601610e55565b9150509250929050565b5f73ffffffffffffffffffffffffffffffffffffffff82169050919050565b5f819050919050565b5f610ee9610ee4610edf84610ea7565b610ec6565b610ea7565b9050919050565b5f610efa82610ecf565b9050919050565b5f610f0b82610ef0565b9050919050565b610f1b81610f01565b82525050565b5f602082019050610f345f830184610f12565b92915050565b5f610f4482610ea7565b9050919050565b610f5481610f3a565b8114610f5e575f5ffd5b50565b5f81359050610f6f81610f4b565b92915050565b5f60208284031215610f8a57610f89610c29565b5b5f610f9784828501610f61565b91505092915050565b5f5f60408385031215610fb657610fb5610c29565b5b5f610fc385828601610d8c565b9250506020610fd485828601610d8c565b9150509250929050565b5f60208284031215610ff357610ff2610c29565b5b5f61100084828501610d8c565b91505092915050565b5f81519050919050565b5f82825260208201905092915050565b8281835e5f83830152505050565b5f61103b82611009565b6110458185611013565b9350611055818560208601611023565b61105e81610c39565b840191505092915050565b61107281610e34565b82525050565b5f60e08201905061108b5f83018a610e0c565b818103602083015261109d8189611031565b90506110ac6040830188610e0c565b6110b96060830187610e0c565b6110c66080830186610e0c565b6110d360a0830185610e0c565b6110e060c0830184611069565b98975050505050505050565b6110f581610f3a565b82525050565b5f60208201905061110e5f8301846110ec565b92915050565b5f5f6040838503121561112a57611129610c29565b5b5f61113785828601610f61565b925050602061114885828601610d8c565b9150509250929050565b5f6020820190506111655f830184611069565b92915050565b7f446561646c696e650000000000000000000000000000000000000000000000005f82015250565b5f61119f600883611013565b91506111aa8261116b565b602082019050919050565b5f6020820190508181035f8301526111cc81611193565b9050919050565b7f4e487b71000000000000000000000000000000000000000000000000000000005f52601160045260245ffd5b5f61120a82610d6d565b91507fffffffffffffffffffffffffffffffffffffffffffffffffffffffffffffffff820361123c5761123b6111d3565b5b600182019050919050565b7f4e487b71000000000000000000000000000000000000000000000000000000005f52602260045260245ffd5b5f600282049050600182168061128b57607f821691505b60208210810361129e5761129d611247565b5b50919050565b5f819050815f5260205f209050919050565b5f6020601f8301049050919050565b5f82821b905092915050565b5f600883026113007fffffffffffffffffffffffffffffffffffffffffffffffffffffffffffffffff826112c5565b61130a86836112c5565b95508019841693508086168417925050509392505050565b5f61133c61133761133284610d6d565b610ec6565b610d6d565b9050919050565b5f819050919050565b61135583611322565b61136961136182611343565b8484546112d1565b825550505050565b5f5f905090565b611380611371565b61138b81848461134c565b505050565b5b818110156113ae576113a35f82611378565b600181019050611391565b5050565b601f8211156113f3576113c4816112a4565b6113cd846112b6565b810160208510156113dc578190505b6113f06113e8856112b6565b830182611390565b50505b505050565b5f82821c905092915050565b5f6114135f19846008026113f8565b1980831691505092915050565b5f61142b8383611404565b9150826002028217905092915050565b61144482611009565b67ffffffffffffffff81111561145d5761145c610c49565b5b6114678254611274565b6114728282856113b2565b5f60209050601f8311600181146114a3575f8415611491578287015190505b61149b8582611420565b865550611502565b601f1984166114b1866112a4565b5f5b828110156114d8578489015182556001820191506020850194506020810190506114b3565b868310156114f557848901516114f1601f891682611404565b8355505b6001600288020188555050505b505050505050565b5f60808201905061151d5f830187610e0c565b818103602083015261152f8186611031565b905061153e6040830185610e0c565b61154b6060830184610e0c565b95945050505050565b7f566e6f74206163746976650000000000000000000000000000000000000000005f82015250565b5f611588600b83611013565b915061159382611554565b602082019050919050565b5f6020820190508181035f8301526115b58161157c565b9050919050565b7f446561646c696e652070617373656400000000000000000000000000000000005f82015250565b5f6115f0600f83611013565b91506115fb826115bc565b602082019050919050565b5f6020820190508181035f83015261161d816115e4565b9050919050565b7f416c726561647920766f746564000000000000000000000000000000000000005f82015250565b5f611658600d83611013565b915061166382611624565b602082019050919050565b5f6020820190508181035f8301526116858161164c565b9050919050565b5f8160011c9050919050565b5f5f8291508390505b60018511156116e1578086048111156116bd576116bc6111d3565b5b60018516156116cc5780820291505b80810290506116da8561168c565b94506116a1565b94509492505050565b5f826116f957600190506117b4565b81611706575f90506117b4565b816001811461171c576002811461172657611755565b60019150506117b4565b60ff841115611738576117376111d3565b5b8360020a91508482111561174f5761174e6111d3565b5b506117b4565b5060208310610133831016604e8410600b841016171561178a5782820a905083811115611785576117846111d3565b5b6117b4565b6117978484846001611698565b925090508184048111156117ae576117ad6111d3565b5b81810290505b9392505050565b5f60ff82169050919050565b5f6117d182610d6d565b91506117dc836117bb565b92506118097fffffffffffffffffffffffffffffffffffffffffffffffffffffffffffffffff84846116ea565b905092915050565b5f61181b82610d6d565b915061182683610d6d565b925082820261183481610d6d565b9150828204841483151761184b5761184a6111d3565b5b5092915050565b5f61185c82610d6d565b915061186783610d6d565b925082820190508082111561187f5761187e6111d3565b5b92915050565b5f6060820190506118985f830186610e0c565b6118a560208301856110ec565b6118b26040830184611069565b949350505050565b7f546f6f206c6f6e670000000000000000000000000000000000000000000000005f82015250565b5f6118ee600883611013565b91506118f9826118ba565b602082019050919050565b5f6020820190508181035f83015261191b816118e2565b9050919050565b5f6060820190506119355f8301866110ec565b61194260208301856110ec565b61194f6040830184610e0c565b949350505050565b5f8151905061196581610e3f565b92915050565b5f602082840312156119805761197f610c29565b5b5f61198d84828501611957565b91505092915050565b5f6060820190506119a95f830186610e0c565b6119b66020830185610e0c565b6119c36040830184610e0c565b94935050505056fea26469706673582212205181133efad39dc8144cafd5b047cfc7ed8552b1c7bc17914bac4b54bfb31aad64736f6c634300081c0033","linkReferences":{}},"methodIdentifiers":{"castVote(uint256,bool)":"15373e3d","createVote(string,uint256,uint256)":"029fc3e8","max_per()":"78f7520c","owner()":"8da5cb5b","periods(address)":"72ebdd47","renounceOwnership()":"715018a6","stacked(address)":"2349c1e8","stakeTokens(uint256,uint256)":"3b7b6188","transferOwnership(address)":"f2fde38b","vegatoken()":"2211f79a","vote_cnt()":"07f56e00","voted(address,uint256)":"c591aa98","votes(uint256)":"5df81330"},"id":38}